{
  "abi": [
    {
      "type": "constructor",
      "inputs": [
        {
          "name": "priceFeed",
          "type": "address",
          "internalType": "address"
        }
      ],
      "stateMutability": "nonpayable"
    },
    {
      "type": "function",
      "name": "MINIMUM_USD",
      "inputs": [],
      "outputs": [
        {
          "name": "",
          "type": "uint256",
          "internalType": "uint256"
        }
      ],
      "stateMutability": "view"
    },
    {
      "type": "function",
      "name": "cheaperWithdraw",
      "inputs": [],
      "outputs": [],
      "stateMutability": "nonpayable"
    },
    {
      "type": "function",
      "name": "fund",
      "inputs": [],
      "outputs": [],
      "stateMutability": "payable"
    },
    {
      "type": "function",
      "name": "getAddressToAmountFunded",
      "inputs": [
        {
          "name": "fundingAddress",
          "type": "address",
          "internalType": "address"
        }
      ],
      "outputs": [
        {
          "name": "",
          "type": "uint256",
          "internalType": "uint256"
        }
      ],
      "stateMutability": "view"
    },
    {
      "type": "function",
      "name": "getDecimals",
      "inputs": [],
      "outputs": [
        {
          "name": "",
          "type": "uint8",
          "internalType": "uint8"
        }
      ],
      "stateMutability": "view"
    },
    {
      "type": "function",
      "name": "getDescription",
      "inputs": [],
      "outputs": [
        {
          "name": "",
          "type": "string",
          "internalType": "string"
        }
      ],
      "stateMutability": "view"
    },
    {
      "type": "function",
      "name": "getFunder",
      "inputs": [
        {
          "name": "index",
          "type": "uint256",
          "internalType": "uint256"
        }
      ],
      "outputs": [
        {
          "name": "",
          "type": "address",
          "internalType": "address"
        }
      ],
      "stateMutability": "view"
    },
    {
      "type": "function",
      "name": "getOwner",
      "inputs": [],
      "outputs": [
        {
          "name": "",
          "type": "address",
          "internalType": "address"
        }
      ],
      "stateMutability": "view"
    },
    {
      "type": "function",
      "name": "getPriceFeed",
      "inputs": [],
      "outputs": [
        {
          "name": "",
          "type": "address",
          "internalType": "contract IAggregator"
        }
      ],
      "stateMutability": "view"
    },
    {
      "type": "function",
      "name": "withdraw",
      "inputs": [],
      "outputs": [],
      "stateMutability": "nonpayable"
    },
    {
      "type": "error",
      "name": "FundMe__NotOwner",
      "inputs": []
    }
  ],
  "bytecode": {
    "object": "0x60a060405234801561001057600080fd5b50604051610ba0380380610ba083398101604081905261002f91610058565b600280546001600160a01b0319166001600160a01b039290921691909117905533608052610088565b60006020828403121561006a57600080fd5b81516001600160a01b038116811461008157600080fd5b9392505050565b608051610ae16100bf600039600081816101430152818161027f015281816103360152818161049801526105aa0152610ae16000f3fe6080604052600436106100915760003560e01c80639e87a5cd116100595780639e87a5cd1461017b578063b60d428814610199578063be2693f0146101a1578063d7b4750c146101b6578063f0141d84146101d657600080fd5b80630343fb25146100965780631a092541146100df5780633ccfd60b146101015780636b69a59214610118578063893d20e814610134575b600080fd5b3480156100a257600080fd5b506100cc6100b13660046107fc565b6001600160a01b031660009081526001602052604090205490565b6040519081526020015b60405180910390f35b3480156100eb57600080fd5b506100f46101fd565b6040516100d69190610849565b34801561010d57600080fd5b50610116610274565b005b34801561012457600080fd5b506100cc674563918244f4000081565b34801561014057600080fd5b507f00000000000000000000000000000000000000000000000000000000000000005b6040516001600160a01b0390911681526020016100d6565b34801561018757600080fd5b506002546001600160a01b0316610163565b6101166103b5565b3480156101ad57600080fd5b5061011661048d565b3480156101c257600080fd5b506101636101d136600461087c565b61062a565b3480156101e257600080fd5b506101eb610659565b60405160ff90911681526020016100d6565b60025460408051633942720b60e11b815290516060926001600160a01b031691637284e4169160048083019260009291908290030181865afa158015610247573d6000803e3d6000fd5b505050506040513d6000823e601f3d908101601f1916820160405261026f91908101906108ab565b905090565b336001600160a01b037f000000000000000000000000000000000000000000000000000000000000000016146102bd5760405163579610db60e01b815260040160405180910390fd5b60005b6000548110156103135760008082815481106102de576102de610958565b60009182526020808320909101546001600160a01b03168252600190526040812055508061030b81610984565b9150506102c0565b50604080516000808252602082019283905290516103319290610782565b5060007f00000000000000000000000000000000000000000000000000000000000000006001600160a01b03164760405160006040518083038185875af1925050503d806000811461039f576040519150601f19603f3d011682016040523d82523d6000602084013e6103a4565b606091505b50509050806103b257600080fd5b50565b600254674563918244f40000906103d69034906001600160a01b03166106c7565b10156104285760405162461bcd60e51b815260206004820152601b60248201527f596f75206e65656420746f207370656e64206d6f726520455448210000000000604482015260640160405180910390fd5b336000908152600160205260408120805434929061044790849061099d565b9091555050600080546001810182559080527f290decd9548b62a8d60345a988386fc84ba6bc95484008f6362f93160ef3e5630180546001600160a01b03191633179055565b336001600160a01b037f000000000000000000000000000000000000000000000000000000000000000016146104d65760405163579610db60e01b815260040160405180910390fd5b600080546040805160208084028201810190925282815291839183018282801561052957602002820191906000526020600020905b81546001600160a01b0316815260019091019060200180831161050b575b5050505050905060005b815181101561058757600082828151811061055057610550610958565b6020908102919091018101516001600160a01b0316600090815260019091526040812055508061057f81610984565b915050610533565b50604080516000808252602082019283905290516105a59290610782565b5060007f00000000000000000000000000000000000000000000000000000000000000006001600160a01b03164760405160006040518083038185875af1925050503d8060008114610613576040519150601f19603f3d011682016040523d82523d6000602084013e610618565b606091505b505090508061062657600080fd5b5050565b600080828154811061063e5761063e610958565b6000918252602090912001546001600160a01b031692915050565b6002546040805163313ce56760e01b815290516000926001600160a01b03169163313ce5679160048083019260209291908290030181865afa1580156106a3573d6000803e3d6000fd5b505050506040513d601f19601f8201168201806040525081019061026f91906109b0565b6000806106d3836106ff565b90506000670de0b6b3a76400006106ea86846109d3565b6106f491906109ea565b925050505b92915050565b600080826001600160a01b031663feaf968c6040518163ffffffff1660e01b815260040160a060405180830381865afa158015610740573d6000803e3d6000fd5b505050506040513d601f19601f820116820180604052508101906107649190610a2b565b505050915050806402540be40061077b9190610a7b565b9392505050565b8280548282559060005260206000209081019282156107d7579160200282015b828111156107d757825182546001600160a01b0319166001600160a01b039091161782556020909201916001909101906107a2565b506107e39291506107e7565b5090565b5b808211156107e357600081556001016107e8565b60006020828403121561080e57600080fd5b81356001600160a01b038116811461077b57600080fd5b60005b83811015610840578181015183820152602001610828565b50506000910152565b6020815260008251806020840152610868816040850160208701610825565b601f01601f19169190910160400192915050565b60006020828403121561088e57600080fd5b5035919050565b634e487b7160e01b600052604160045260246000fd5b6000602082840312156108bd57600080fd5b815167ffffffffffffffff808211156108d557600080fd5b818401915084601f8301126108e957600080fd5b8151818111156108fb576108fb610895565b604051601f8201601f19908116603f0116810190838211818310171561092357610923610895565b8160405282815287602084870101111561093c57600080fd5b61094d836020830160208801610825565b979650505050505050565b634e487b7160e01b600052603260045260246000fd5b634e487b7160e01b600052601160045260246000fd5b6000600182016109965761099661096e565b5060010190565b808201808211156106f9576106f961096e565b6000602082840312156109c257600080fd5b815160ff8116811461077b57600080fd5b80820281158282048414176106f9576106f961096e565b600082610a0757634e487b7160e01b600052601260045260246000fd5b500490565b805169ffffffffffffffffffff81168114610a2657600080fd5b919050565b600080600080600060a08688031215610a4357600080fd5b610a4c86610a0c565b9450602086015193506040860151925060608601519150610a6f60808701610a0c565b90509295509295909350565b80820260008212600160ff1b84141615610a9757610a9761096e565b81810583148215176106f9576106f961096e56fea26469706673582212208b5505ce508e478804d6039e111aa00248ca4f4d14a16b91946e511b403a700364736f6c63430008130033",
    "linkReferences": {}
  },
  "methodIdentifiers": {
    "MINIMUM_USD()": "6b69a592",
    "cheaperWithdraw()": "be2693f0",
    "fund()": "b60d4288",
    "getAddressToAmountFunded(address)": "0343fb25",
    "getDecimals()": "f0141d84",
    "getDescription()": "1a092541",
    "getFunder(uint256)": "d7b4750c",
    "getOwner()": "893d20e8",
    "getPriceFeed()": "9e87a5cd",
    "withdraw()": "3ccfd60b"
  },
  "id": 30
}